:03000000021901E1
:0C190100787FE4F6D8FD758135021948A6
:100F490000440048004B004F00530057005C00600C
:100F59000065006A006F0074007A007F0085008BCD
:100F690000920099009F00A700AE00B600BE00C61F
:100F790000CF00D700E100EA00F400FE01080113E8
:100F8900011E012901350141014E015B016801760C
:100F99000184019201A101B001BF01CF01E001F17A
:100FA9000202021302250238024B025E0272028615
:100FB900029A02AF02C402DA02F00307031E0335E4
:100FC900034D0365037D039603AF03C803E203FCE6
:100FD90004170432044D0468048404A004BC04D931
:100FE90004F50512052F054D056A058805A605C4F2
:100FF90005E20600061E063D065B067A069806B758
:1010090006D506F4071307310750076E078C07AB9F
:1010190007C907E7080508220840085E087B089801
:1010290008B508D208EE090A09270942095E0979B3
:10103900099409AF09CA09E409FE0A180A310A4BD9
:101049000A630A7C0A940AAC0AC40ADB0AF20B098D
:101059000B1F0B350B4B0B600B760B8A0B9F0BB3DE
:101069000BC70BDA0BEE0C010C130C260C380C49D0
:101079000C5B0C6C0C7D0C8D0C9E0CAE0CBD0CCD60
:101089000CDC0CEB0CF90D080D160D240D310D3E81
:101099000D4C0D580D650D710D7D0D890D950DA02A
:1010A9000DAC0DB70DC10DCC0DD60DE10DEB0DF449
:1010B9000DFE0E070E110E1A0E230E2B0E340E3CCA
:1010C9000E440E4C0E540E5C0E640E6B0E720E79AD
:10153E004100420041003D0041000B00410004000B
:10154E00410001004100050041000C00410009006E
:10155E0041003800410008004100060041004100F2
:10156E0041003700410035004100030041000E00EC
:10157E004100360041000D0043003E0000004100D6
:10158E00070041000A0041000000410002006026F1
:10159E00000F000000F0001E001900F0000A000FFE
:1015AE00000C002300140005000F025800B40002C6
:1015BE000030001E000D05A00222000001190001DE
:1015CE003100011C00011F00022F0000021D00004F
:1015DE0002200000011A00012B0001290002250043
:1015EE0000011B00012400012700012C000128002E
:1015FE00012A00022D0000010A00020B0000010862
:10160E0000010900010D00020E000001120002137C
:10161E000000021500000110000111000217000069
:041BE6008E328F3379
:061BEA00E4FF0FBF03FC45
:011BF00022D2
:101BBA00EF1FAA0670011E4A600BE4FDEDC39447AD
:051BCA0050EE0D80F754
:011BCF0022F3
:101B51008F828E83E5821582AE83700215834E607B
:0B1B6100097F147E00121BBA80EA22EC
:101BA10090FF0D74C2F090FFA07415F075CC06750E
:091BB100CEFF75CD98759E02224D
:0B1BF1008F99E59830E1FB5398FD222E
:10000E00E490FE80F0F589758CFA758ACB43A802D0
:04001E0043881022E1
:10162F00E50A7015750A0190FF1D74C2F090FF9CBA
:10163F007435F075DE2075DF10BF010B75DD977502
:10164F000B00750C328036BF020B75DD97750B00E2
:10165F00750C648028BF030B75DD97750B00750C37
:10166F00FA801ABF040B75DD97750B13750C888004
:10167F000CBF050975DD97750B01750C2CD3E50CA7
:10168F009400E50B648094804060E50C150C7002AB
:10169F00150BE51B6021AE0BAF0C7C007D7D121787
:0516AF004FED4C70122C
:1016B400E508700875DD07750801800675DD97E497
:0216C400F50827
:1016C600E52864017024E51B7020AE0BAF0CFC7D91
:0816D6003212174FED4C7012A7
:1016DE00E509700875DD07750901800675DD97E46B
:0216EE00F509FC
:0916F000E50C450B700375DD07E4
:0116F90022CE
:101B870090FF157402F075B4807F017E00121BBAB6
:0A1B970075B50D90FE9B744BF02213
:061BD0007F02FE121B5112
:101BD60043B440E5B430E5FB53B4DFAFB6AEB7224D
:10186300E4F532F533121BD68E348F35E4F532F5B9
:1018730033E53325E0FFE53233FE74492FF58274F7
:101883000F3EF583D37401939535E4939534500E4D
:101893000533E5337002053264C8453270D3E5354C
:1018A30045347010E51B700C121BD0EF4E70487559
:1018B3001B01803EC3E53594FAE534940F4015E5EA
:1018C3001B7011121BD0C3EF94FAEE940F402875CE
:1018D3001B02801ED3E535945CE534940E4018E575
:1018E3001B7014121BD0D3EF945CEE940E4008755A
:0D18F3001B037F0412162F85322D85332E26
:0119000022C4
:101B6C00C3E52E9450E52D9400500F30A40CE51BCA
:0B1B7C007008751B047F0412162F2256
:1019FF0090FF1274C4F090FF11F090FF10F090FF61
:101A0F0005F090FF02F090FF01F090FF0EF090FFB5
:101A1F000674C0F090FF09F090FF07F090FF00F000
:101A2F0090FF08F090FF03F090FF17F090FF16F073
:101A3F0090FF0FF090FF04F0D285D282D281D29620
:101A4F00D2A2D2A1D2A0C286C291C287C280C290B6
:0B1A5F00C283C2A7C2A6C297C28422A5
:100831001219FFD285D282D281D296D2A2D2A1D26E
:10084100A0C286C291C287C280C290C283C2A7C21F
:10085100A6C297C284C3E50D648094844003020953
:10086100DBAF0DEF3395E0FE74392FF58274003E56
:10087100F583E012179B09810008CC0108CF02081B
:10088100DB0308E70408F10508FB0608FF07090177
:100891000809070909550A095B0B09610C09690D6A
:1008A10009750E09810F098D1009991109A5120900
:1008B100B11309BD14098115091F2D093C43091301
:1008C10045093050094462000009CD02095BD28418
:1008D100D280C291D287D286804ED284D280D291E8
:1008E100D287C2868042C284D280D291C287801EC2
:1008F100D284C280D291D2878014D2848047806012
:10090100D284D2808041D284D280D291D287C286D1
:10091100803BD284C280C291D287D286802FC2848A
:10092100C280C291C287C286C283D2970209DBD23A
:1009310084D280C291C287D2868012D284C280C200
:10094100918043C284C280D291D287D286D283D28F
:10095100970209DBC284C280800AC284D2808004EB
:10096100D284D280D291806AD284D280D291C2873D
:10097100C2868052D284D280D291C287D2868046EA
:10098100D284D280D291D287D286803AC284C28068
:10099100C291C287D286803EC284C280C291C28780
:1009A100D2868022D284C280C291C287D28680162A
:1009B100D284D280C291C287D286800AD284D28068
:1009C100D291C287D286D283C297800EC284C2805E
:1009D100C291C287C286C283C297E50D7005C285E6
:1009E100020AFBE50DB4010DC282900000E024FF74
:1009F1009290020AFBE50DB40205C281020AFBE5F1
:100A01000DB40305C296020AFBE50D640470539010
:100A1100000BE024FF9286900041E024FF92919028
:100A21000005E024FF928790000DE024FF92809062
:100A3100003FE0FF24FF929090000EE024FF92839C
:100A4100900037E024FF92A7900035E024FF92A6A2
:100A5100EF24FF9297900042E024FF9284C2A20209
:100A61000AFBE50D6405704C900004E024FF9286BA
:100A710090003EE024FF9291900001E024FF9287D4
:100A8100900008E024FF9280A3E024FF9290900060
:100A910036E024FF9283D2A7900003E024FF92A6C0
:100AA10090003FE024FF9297900007E024FF92849A
:100AB100C2A18046E50D6406704090000AE024FF63
:100AC100928690003EE024FF929190000CE024FF7A
:100AD1009287900006E024FF9280900038E024FF86
:100AE1009290900040E024FF9283C2A792A6929731
:100AF10090003DE024FF9284C2A0050DE50DB407EE
:040B010003E4F50D07
:010B050022CD
:1010D900E52960030211F9E51C641270030211EAA3
:1010E900E524705CAE22AF237C027D581216FA907B
:1010F9000039EFF0AE22AF237C027D581216FA7E3A
:10110900007F3CCFCDCFCECCCE1216FAA3EFF0AEF6
:1011190022AF237C007D3C1216FA7E007F0ACFCDD8
:10112900CFCECCCE1216FAA3EFF0AE22AF237C00BD
:101139007D0A1216FAA3EDF09000007401F08038D0
:101149009000397458F0A37450F0AE22AF237C009C
:101159007D3C1216FA7E007F0ACFCDCFCECCCE12BF
:1011690016FAA3EFF0AE22AF237C007D0A1216FA1D
:10117900A3EDF0E4900000F0D3E51E9400E51D9482
:1011890000500302121AAE1DAF1E7C027D581216C2
:10119900FA900039EFF0AE1DAF1E7C027D58121691
:1011A900FA7E007F3CCFCDCFCECCCE1216FAA3EF7C
:1011B900F0AE1DAF1E7C007D3C1216FA7E007F0A40
:1011C900CFCDCFCECCCE1216FAA3EFF0AE1DAF1E07
:1011D9007C007D0A1216FAA3EDF09000007401F06C
:1011E900229000397458F0A3F0A37462F0A3F0229E
:1011F9009000397458F0E51975F00A84A3F0E519DF
:1012090075F00A84A3E5F0F0A37443F0E4900000BC
:02121900F022C1
:100B0600E51C64127003020D21E524600ED3E51E78
:100B16009400E51D94005003020C0CAE22AF237C1A
:100B2600027D581216FA900039EFF0AE22AF237C00
:100B3600027D581216FA7E007F3CCFCDCFCECCCEAA
:100B46001216FAA3EFF0AE22AF237C007D3C1216FC
:100B5600FA7E007F0ACFCDCFCECCCE1216FAA3EF07
:100B6600F0AE22AF237C007D0A1216FAA3EDF0D375
:100B7600E51E9400E51D94004054AE1DAF1E7C0298
:100B86007D581216FA900039EFF0AE1DAF1E7C02AA
:100B96007D581216FA7E007F3CCFCDCFCECCCE123A
:100BA60016FAA3EFF0AE1DAF1E7C007D3C1216FABE
:100BB6007E007F0ACFCDCFCECCCE1216FAA3EFF0B1
:100BC600AE1DAF1E7C007D0A1216FAA3EDF0E50FEE
:100BD6006401450E700790000004F08020E50F6464
:100BE600FA450E7006900000F08012D3E50F94F4DB
:100BF600E50E648094814005E4F50EF50F050FE5DA
:100C06000F7002050E22AE22AF237C007D3C121629
:100C1600FA7E007F0ACFCDCFCECCCE1216FA900048
:100C26003BEFF0AE22AF237C007D0A1216FAA3ED4D
:100C3600F0E52A64016003020CDF900000F0E50F86
:100C46006401450E700C900039740AF0A37410F01C
:100C5600807EE50F64C8450E700C900039740BF069
:100C6600A37411F0806AE50FB49011E50EB4010C7F
:100C7600900039740CF0A37412F08054E50FB45848
:100C860011E50EB4020C900039740DF0A37413F044
:100C9600803EE50FB42011E50EB4030C90003974C4
:100CA6000EF0A37414F08028E50FB4E811E50EB435
:100CB600030C900039740FF0A37415F08012D3E57D
:100CC6000F94B0E50E648094844005E4F50EF50FAC
:100CD600050FE50F7002050E229000397458F0A337
:100CE6007450F0E50F6401450E700790000004F0A3
:100CF6008020E50F64FA450E7006900000F0801221
:100D0600D3E50F94F4E50E648094814005E4F50E76
:100D1600F50F050FE50F7016050E22900039745871
:0E0D2600F0A3F0A37462F0A3F0E4900000F0DC
:010D3400229C
:101A6A00E4900042F090003DF090000BF0900004EA
:101A7A00F0900001F0900005F090000CF090000941
:101A8A00F0900038F0900008F0900006F0900041C5
:101A9A00F0900037F0900035F0900003F090000EBF
:101AAA00F0900036F090000DF090003EF0A3F0A305
:101ABA00F0E51F700C9000397458F0A3F0A3F0A35E
:0B1ACA00F0E4900007F090000AF0220A
:101B2300121A6AE4900039F0A3F0A3F0A3F0E51AC7
:101B3300B401069000077401F0E51B6010900039B2
:0E1B43007458F0A3F0A37445F0A3E51BF02244
:10198D00E51F7041C3EF9DEE9C500E90003E74011B
:10199D00F0E4A3F0A3F0F52722EFB50513EEB5049F
:1019AD000F90003E7401F0A3F0E4A3F0752701221F
:1019BD00D3EF9DEE9C403A90003E7401F0A3F0A34E
:1019CD00F075270222E527700890003E04F0E480B0
:1019DD001CE527B4010C90003E7401F0A3F0E4A3C4
:1019ED00F022E527B4020A90003E7401F0A3F0A3A3
:0219FD00F022D6
:10133700E51C14B41200400302141290135075F008
:1013470003A4C58325F0C5837302138602138C0299
:1013570013970213A20213A70213B20213B70213C1
:10136700C20213CD0213E40213E90213EE0213F3D0
:101377000213F80213FD02140202140702140C9060
:10138700004202140F90003D7401F0900013803F5B
:1013970090000B7401F09000158034900004806871
:1013A7009000017401F09000198024900005805886
:1013B7009000377401F090001D801490003574017F
:1013C700F090001F80099000037401F0900021E065
:1013D700FCA3E0FDAF23AE2212198D802E90000EE4
:1013E7008026900036802190000C801C9000098098
:1013F700179000388012900008800D900006800832
:10140700900041800390000D7401F0D3E51E940015
:10141700E51D9400400890000A7401F08005E490EF
:10142700000AF0E51AB401079000077401F022E4FE
:05143700900007F02207
:091BFC00121A6A1210D902133703
:10143C0090FF04745BF090FF06F0A3F090FF00F0B7
:10144C0090FF03F090FF16F0A3F090FF08F090FFD0
:10145C000FF090FF0BF090FF09F0D285D282D28171
:10146C00D296D2A2D2A1D2A0E4900002F090FF0CAE
:10147C0074C0F0E490FF0BF0D2947F01FE121BE6D7
:10148C003091047F12803A3084047F02803330869E
:10149C00047F04802C30A6047F0B80253083047FCE
:1014AC0009801E3087047F0680173090047F0F80E0
:1014BC00103080047F1380093097047F1080027FE6
:1014CC0000900002EFF0706090FF0CF090FF0B7436
:1014DC00C0F0D2937F017E00121BE630A6047F0A77
:1014EC00804130A7047F0C803A3091047F11803307
:1014FC003086047F03802C3083047F088025308461
:10150C00047F01801E3097047F0E80173087047F84
:10151C000580103080047F0780093090047F0D8097
:10152C00027F00900002EFF0E490FF0CF090FF0BB4
:02153C00F0229B
:100D3500D3E51E9400E51D94004020741E251EF584
:100D45001EE4351DF51DD3E51E94A0E51D94055043
:100D550003020F48751D00751E1E22E51CB4011BFC
:100D65000523E52370020522D394A0E522940550BE
:100D750003020F4875220075231422E51CB40217DF
:100D85000523E52370020522D3943BE52294005008
:100D950003020F48020F42E51CB403170523E523A0
:100DA50070020522D3943BE52294005003020F48BC
:100DB500020F42E51CB4041C743C2523F523E435DD
:100DC50022F522D3E5239458E52294025003020F1D
:100DD50048020EDDE51CB405170523E52370020561
:100DE50022D3943BE52294005003020F48020F42A0
:100DF500E51CB406170523E52370020522D3943BB1
:100E0500E52294005003020F48020F42E51CB40787
:100E1500170523E52370020522D3943BE5229400B0
:100E25005003020F48020F42E51CB408170523E5DD
:100E35002370020522D3943BE52294005003020F50
:100E450048020F42E51CB409170523E52370020586
:100E550022D3943BE52294005003020F48020F422F
:100E6500E51CB40A170523E52370020522D3943B3C
:100E7500E52294005003020F48020F42E51CB40B13
:100E8500170523E52370020522D3943BE522940040
:100E95005003020F48020F42E51CB40C20743C2598
:100EA50023F523E43522F522D3E52394D0E52294D6
:100EB500025003020F4875220175236822E51CB410
:100EC5000D1D743C2523F523E43522F522D3E523B6
:100ED50094A4E5229401406B75220075237822E5E0
:100EE5001CB40E130523E52370020522D3943BE5BC
:100EF500229400404E8046E51CB40F130523E523DC
:100F050070020522D3943BE52294004036802EE5FD
:100F15001CB410130523E52370020522D3943BE589
:100F2500229400401E8016E51CB411170523E52305
:100F350070020522D3943BE52294004006752200F9
:040F450075230122ED
:10055100D3E51E9400E51D94004027E51E941EE599
:100561001D9400500302083074E2251EF51E74FF2D
:10057100351DF51D451E6003020830751D05751EEC
:10058100A022E51CB4012AC3E5239414E5229400BA
:100591005003020830E523152370021522E5239448
:1005A10014E522940040030208307522057523A04A
:1005B10022E51CB40222C3E5239401E522940050F4
:1005C10003020830E523152370021522E523452295
:1005D100600302083002082BE51CB40322C3E523A3
:1005E1009401E52294005003020830E5231523709D
:1005F100021522E5234522600302083002082BE59B
:100601001CB4042FC3E5239478E52294005003021F
:10061100083074C42523F52374FF3522F522C3E580
:10062100239478E522940040030208307522027574
:10063100235822E51CB40522C3E5239401E5229445
:10064100005003020830E523152370021522E5232B
:100651004522600302083002082BE51CB40622C3C0
:10066100E5239401E52294005003020830E52315A7
:100671002370021522E52345226003020830020897
:100681002BE51CB40722C3E5239401E52294005015
:1006910003020830E523152370021522E5234522C4
:1006A100600302083002082BE51CB40822C3E523CD
:1006B1009401E52294005003020830E523152370CC
:1006C100021522E5234522600302083002082BE5CA
:1006D1001CB40922C3E5239401E5229400500302CE
:1006E1000830E523152370021522E5234522600316
:1006F10002083002082BE51CB40A22C3E523940149
:10070100E52294005003020830E5231523700215F9
:1007110022E5234522600302083002082BE51CB4C0
:100721000B22C3E5239401E5229400500302083013
:10073100E523152370021522E523452260030208F3
:100741003002082BE51CB40C2FC3E5239468E52285
:100751009401500302083074C42523F52374FF3536
:1007610022F522C3E5239468E5229401400302089F
:10077100307522027523D022E51CB40D2FC3E52369
:100781009478E5229400500302083074C42523F5BF
:100791002374FF3522F522C3E5239478E5229400E2
:1007A10040030208307522017523A422E51CB40E12
:1007B1001BC3E5239401E52294004073E52315232F
:1007C10070021522E52345227065805EE51CB40F99
:1007D1001BC3E5239401E52294004053E52315232F
:1007E10070021522E52345227045803EE51CB410B8
:1007F1001BC3E5239401E52294004033E52315232F
:1008010070021522E52345227025801EE51CB411D6
:100811001EC3E5239401E52294004013E52315232B
:1008210070021522E52345227005F52275233B222E
:10121B00E51C6402702BE52B7008F5227523230265
:10122B001315E52BB401097522007523190213243C
:10123B00E52B64026003021336F52275231EF52B92
:10124B0022E51C6403702BE52B7008F52275231E19
:10125B00021315E52BB40109752200752314021333
:10126B0024E52B64026003021336F522752319F56E
:10127B002B22E51C6405702BE52B7008F5227523DA
:10128B000F021315E52BB401097522007523050216
:10129B001324E52B64026003021336F52275230A2F
:1012AB00F52B22E51C64077026E52B7007F52275DC
:1012BB00230F8056E52BB4010875220075230A8095
:1012CB0058E52B64027064F52275230CF52B22E58F
:1012DB001C64087026E52B7007F522752328802ADD
:1012EB00E52BB4010875220075231E802CE52B64B9
:1012FB00027038F522752323F52B22E51C64097047
:10130B002AE52B7009F522752319752B0122E52B84
:10131B00B4010A75220075230F752B0222E52BB43D
:0C132B000209752200752314E4F52B2242
:10002600900002E0FF70030203F3E512640160032F
:100036000200D2C3E51494F4E51364809481500A57
:100046000514E5147078051380740516E516AC15CD
:100056007002051514D39414EC64809480404BEF21
:10006600B4100DE51C6009E51F7005120D358035CD
:10007600900002E0B40F0DE51C6009E51F70051243
:1000860005518021900002E0B4011AE51CB4011567
:10009600E51F7011E529B401020519E519D3945A33
:1000A600400375192DE4F515F516900002E0B40D20
:1000B6000DE51AB40108E4F51A7F0212162FE51FA2
:1000C60060030203F6F520F5210203F6E4F513F5C5
:1000D60014751201E51A60030203E2E51F600302CC
:1000E60003AE7F0112162FE4F520F521900002E001
:1000F600FF64017041E51C64016021751C01E51C6B
:1001060025E0240FF582E43400F583E0F522A3E030
:10011600F523E4F51DF51E7519328014E529B401A1
:10012600020519E519D3945A400375192D7529014D
:10013600E4F5240203A3EFB40205751C02806F9058
:100146000002E0FFB40305751C038062EFB40424CB
:10015600751C04E51C25E0240FF582E43400F583C4
:10016600E0F522A3E0F523E4F51DF51E751964F507
:10017600240203A3900002E0FFB40505751C058068
:100186002DEFB4061E751C06E51C25E0240FF5822E
:10019600E43400F583E0F522A3E0F523E4F51DF54C
:1001A6001E8072900002E0FFB40C20751C07E51C4F
:1001B60025E0240FF582E43400F583E0F522A3E080
:1001C600F523E4F51DF51EF52B804AEFB40B2075DB
:1001D6001C08E51C25E0240FF582E43400F583E0D5
:1001E600F522A3E0F523E4F51DF51EF52B802690F8
:1001F6000002E0FFB40A27751C09E51C25E0240F60
:10020600F582E43400F583E0F522A3E0F523E4F576
:100216001DF51EF52B7519A57524010203A3EFB470
:100226000924751C0AE51C25E0240FF582E4340038
:10023600F583E0F522A3E0F523E4F51DF51E751917
:10024600A5F5240203A3900002E0FFB40824751C60
:100256000BE51C25E0240FF582E43400F583E0F578
:1002660022A3E0F523E4F51DF51E75195AF52402BF
:0702760003A3EF64127038CE
:10027D00E510700A751C0C751928F524801EE51003
:10028D00B4010B751C0D751928E4F524800EE510CD
:10029D00B40209751C0E7519A57524010510E5101C
:0602AD00B40303E4F510A8
:0B02B3008034900002E0FF64137041F3
:1002BE00E5117005751C0F8012E511B40105751C52
:1002CE00108008E511B40209751C117519A5752465
:1002DE00010511E511B40303E4F511E51C25E02435
:0F02EE000FF582E43400F583E0F522A3E0F52359
:1002FD008073E51C7027EFB40723751C12E51C25D0
:10030D00E0240FF582E43400F583E0F522A3E0F557
:10031D0023E4F51DF51E75193CF5248079E51C6067
:10032D000C900002E0B40705E4F51C806990000212
:10033D00E0FFB40D05751A01805CEF640E702DE5BC
:10034D001E451D7020E51C6401601AE51C640C60DF
:10035D0014E51C640D600EE51C64126008751D002B
:10036D00751E1E8031E4F51DF51E802AEFB4100CAC
:10037D00E51C6008E4F529120D35801AEFB40F0C59
:10038D00E51C6008E4F529120551800AEFB4110649
:10039D00E4F52912121BE51C64016039E4F529808E
:1003AD0034900002E0B407087F0112162FE4F51C0B
:1003BD00900002E0B40D087F0112162F751A0190FE
:1003CD000002E0B4010FE51CB4010A7F0112162FE3
:1003DD00E4F525F526900002E0B40D0D7F0112160F
:1003ED002F751A018003E4F512E51C700302053226
:1003FD00E51B6003020532C3E52194DCE52094057D
:10040D0050660521E521700205206401452070022A
:10041D00804CE52164FA45207002802EE521B4F46C
:10042D0007E520B401028036E521B4EE07E520B4DE
:10043D0002028016E521B4E807E520B40302801E10
:10044D00E521B4E20FE520B4040A121A6AE4900023
:10045D0000F0800DE521B4DA08E520B40503121B88
:10046D00FC7525057526DC22751F01C3E52694DC78
:10047D00E5259405502B0526E526700205259000EF
:10048D00397458F0E51975F00A84A3F0E51975F083
:10049D000A84A3E5F0F0A37443F0E4900000F0802B
:1004AD0009121A6A120B06121337D3E51E9400E5D2
:1004BD001D94004006C2B4E4F52A22D3E52394002E
:1004CD00E5229400402EAF197E00E52E9FE52D9E6E
:1004DD00501920A416E52E2402FDE4352DFCC3EDA4
:1004ED009FEC9E505ED2B4752A0122C2B4E4F52A67
:1004FD00752C0122E51C64126027751C12E51C2564
:10050D00E0240FF582E43400F583E0F522A3E0F555
:10051D0023E4F51DF51E75193C7528017F0502169E
:10052D002FE4F51C22121B23E4F522F523F519F512
:10053D001FF51DF51EF520F521F52FF530C2B4F58B
:03054D002AF52C60
:010550002288
:101AD500E4FB758E5190FE9104F0121B8712000EE7
:101AE5001219FFD2AF90FF1C74C0F090FF14746000
:101AF500F07F0212162F7F027E00121B5112143C3A
:101B0500120026120831E4FF12162F121B6CD3EBBC
:0E1B1500648094E44005121863E4FB0B80D852
:03000B000217C118
:1017C100C0E0C0F0C083C082C0D075D000C000C0EE
:0D17D10001C002C003C004C005C006C0076F
:1017DE00E51F6401705E0518E518AE177002051757
:1017EE0014FFE4FCFD7B607AEAF9F8C3121785500A
:1017FE0049751700751800E51E9400E51D9400400C
:10180E000AE51E151E7002151D802FD3E5239400C8
:10181E00E52294004024E524B4010FE52CB4011A0E
:10182E00E5231523700215228010E523152370027F
:0A183E0015228006751700751800CA
:10184800D007D006D005D004D003D002D001D000F4
:0B185800D0D0D082D083D0F0D0E0329E
:03002300020003D5
:0100030032CA
:10190D00021AD5E493A3F8E493A34003F68001F201
:10191D0008DFF48029E493A3F85407240CC8C333DB
:10192D00C4540F4420C8834004F456800146F6DFAA
:10193D00E4800B010204081020408090153EE47EE7
:10194D00019360BCA3FF543F30E509541FFEE4939F
:10195D00A360010ECF54C025E060A840B8E493A366
:10196D00FAE493A3F8E493A3C8C582C8CAC583CA91
:10197D00F0A3C8C582C8CAC583CADFE9DEE780BE49
:01162E0000BB
:1016FA00BC000BBE0029EF8DF084FFADF022E4CCD4
:10170A00F875F008EF2FFFEE33FEEC33FCEE9DEC9C
:10171A00984005FCEE9DFE0FD5F0E9E4CEFD22EDE2
:10172A00F8F5F0EE8420D21CFEADF075F008EF2F2C
:10173A00FFED33FD4007985006D5F0F222C398FD1D
:05174A000FD5F0EA22BA
:10174F00C2D5EC30E709B2D5E4C39DFDE49CFCEEB5
:10175F0030E715B2D5E4C39FFFE49EFE1216FAC31D
:10176F00E49DFDE49CFC80031216FA30D507C3E418
:06177F009FFFE49EFE2224
:10178500EB9FF5F0EA9E42F0E99D42F0EC6480C8DB
:0617950064809845F0227B
:10179B00D083D082F8E4937012740193700DA3A3DD
:1017AB0093F8740193F5828883E4737402936860F1
:0617BB00EFA3A3A380DFF1
:00000001FF
