:03000000021B0CD4
:0C1B0C00787FE4F6D8FD758145021B537C
:10110E0000440048004B004F00530057005C006045
:10111E000065006A006F0074007A007F0085008B06
:10112E0000920099009F00A700AE00B600BE00C658
:10113E0000CF00D700E100EA00F400FE0108011321
:10114E00011E012901350141014E015B0168017645
:10115E000184019201A101B001BF01CF01E001F1B3
:10116E000202021302250238024B025E027202864E
:10117E00029A02AF02C402DA02F00307031E03351D
:10118E00034D0365037D039603AF03C803E203FC1F
:10119E0004170432044D0468048404A004BC04D96A
:1011AE0004F50512052F054D056A058805A605C42B
:1011BE0005E20600061E063D065B067A069806B791
:1011CE0006D506F4071307310750076E078C07ABD9
:1011DE0007C907E7080508220840085E087B08983B
:1011EE0008B508D208EE090A09270942095E0979ED
:1011FE00099409AF09CA09E409FE0A180A310A4B13
:10120E000A630A7C0A940AAC0AC40ADB0AF20B09C6
:10121E000B1F0B350B4B0B600B760B8A0B9F0BB317
:10122E000BC70BDA0BEE0C010C130C260C380C4909
:10123E000C5B0C6C0C7D0C8D0C9E0CAE0CBD0CCD99
:10124E000CDC0CEB0CF90D080D160D240D310D3EBA
:10125E000D4C0D580D650D710D7D0D890D950DA063
:10126E000DAC0DB70DC10DCC0DD60DE10DEB0DF482
:10127E000DFE0E070E110E1A0E230E2B0E340E3C03
:10128E000E440E4C0E540E5C0E640E6B0E720E79E6
:101509004100420041003D0041000B004100040040
:10151900410001004100050041000C0041000900A3
:101529004100380041000800410006004100410027
:1015390041003700410035004100030041000E0021
:101549004100360041000D0043003E00000041000B
:10155900070041000A004100000041000200602626
:10156900000F000000F0001E001900F0000A000F33
:10157900000C002300140005000F025800B40002FB
:101589000030001E000D05A002250000011B00010E
:101599003F00011F00012200023500000220000067
:1015A90002230000011D00013000012C0002280067
:1015B90000011E00012700013200012A000131004B
:1015C900012B00012F0002330000043B0000000042
:1015D900011C00043700000000012D00012E00014C
:1015E9000A00020B0000010800010900010D0002B8
:1015F9000E0000011400021500000217000004107B
:081609000000000002190000BE
:041E97008E428F43A5
:061E9B00E4FF0FBF03FC91
:011EA100221E
:101E6B00EF1FAA0670011E4A600BE4FDEDC39447F9
:051E7B0050EE0D80F7A0
:011E8000223F
:101E1D008F828E83E5821582AE83700215834E60AC
:0B1E2D00097F147E00121E6B80EA2269
:101E520090FF0D74C2F090FFA07415F075CC06755A
:091E6200CEFF75CD98759E022299
:0B1EA2008F99E59830E1FB5398FD227A
:10000E00E490FE80F0F589758CFA758ACB43A802D0
:04001E0043881022E1
:10199900E50A7015750A0190FF1D74C2F090FF9C4D
:1019A9007435F075DE2075DF10BF010B75DD977595
:1019B9000B00750C328036BF020B75DD97750B0075
:1019C900750C648028BF030B75DD97750B00750CCA
:1019D900FA801ABF040B75DD97750B09750CC48065
:1019E9000CBF050975DD97750B01750C2CD3E50C3A
:1019F9009400E50B648094804060E50C150C70023E
:101A0900150BE51E6021AE0BAF0C7C007D7D121815
:051A190043ED4C7012CA
:101A1E00E508700875DD07750801800675DD97E429
:021A2E00F508B9
:101A3000E52B64017024E51E7020AE0BAF0CFC7D1D
:081A400032121843ED4C701244
:101A4800E509700875DD07750901800675DD97E4FD
:021A5800F5098E
:091A5A00E50C450B700375DD0776
:011A63002260
:101E380090FF157402F075B4807F017E00121E6B4E
:0A1E480075B50D90FE9B744BF0225F
:061E8100FE7F02121E1D8F
:101E870043B440E5B430E5FB53B4DFAFB6AEB72299
:1018C600E4F542F543121E878E448F45E4F542F552
:1018D60043E54325E0FFE54233FE740E2FF582749F
:1018E600113EF583D37401939545E4939544500EC8
:1018F6000543E5437002054264C8454270D3E521BD
:1019060045207032E5226401702CE5454544702679
:10191600E51E70227F307E75FDFCAB3EAA3DA93CDC
:10192600A83BD312188F40647E00121E82EF4E70C1
:101936005B751E018051E52145207025E522B40125
:1019460020C3E54594FAE544940F4015E51E701151
:10195600121E81C3EF94FAEE940F4030751E02807A
:1019660026E52145207025E522B40120D3E54594DE
:101976005CE544940E4015E51E7011121E81D3EFEE
:10198600945CEE940E40057F0412199985423385C6
:021996004334D8
:01199800222C
:101DF700E5214520701FE522B4011AC3E53494504C
:101E0700E5339400500F30A40CE51E7008751E04CE
:061E17007F04121999225C
:101C210090FF1274C4F090FF11F090FF10F090FF3C
:101C310005F090FF02F090FF01F090FF0EF090FF91
:101C41000674C0F090FF09F090FF07F090FF00F0DC
:101C510090FF08F090FF03F090FF17F090FF16F04F
:101C610090FF0FF090FF04F0D285D282D281D296FC
:101C7100D2A2D2A1D2A0C286C291C287C280C29092
:0B1C8100C283C2A7C2A6C297C2842281
:1009D400121C21D285D282D281D296D2A2D2A1D2A5
:1009E400A0C286C291C287C280C290C283C2A7C27B
:1009F400A6C297C284C3E50D648094844003020BAD
:100A04007EAF0DEF3395E0FE74392FF58274003E0E
:100A1400F583E01218A00B24000A6F010A72020A7F
:100A24007E030A8A040A94050A9E060AA2070AA4F7
:100A3400080AAA090AF80A0AFE0B0B040C0B0C0D8F
:100A44000B180E0B240F0B30100B3C110B48120B20
:100A540054130B60140B24150AC22D0ADF430AB683
:100A6400450AD3500AE76200000B70020AFED284E2
:100A7400D280C291D287D286804ED284D280D29143
:100A8400D287C2868042C284D280D291C287801E1D
:100A9400D284C280D291D2878014D284804780606D
:100AA400D284D2808041D284D280D291D287C2862D
:100AB400803BD284C280C291D287D286802FC284E6
:100AC400C280C291C287C286C283D297020B7ED2F1
:100AD40084D280C291C287D2868012D284C280C25C
:100AE400918043C284C280D291D287D286D283D2EB
:100AF40097020B7EC284C280800AC284D2808004A2
:100B0400D284D280D291806AD284D280D291C28798
:100B1400C2868052D284D280D291C287D286804645
:100B2400D284D280D291D287D286803AC284C280C3
:100B3400C291C287D286803EC284C280C291C287DB
:100B4400D2868022D284C280C291C287D286801685
:100B5400D284D280C291C287D286800AD284D280C3
:100B6400D291C287D286D283C297800EC284C280B9
:100B7400C291C287C286C283C297E50D7005C28541
:100B8400020C9EE50DB4010DC282900000E024FF2A
:100B94009290020C9EE50DB40205C281020C9EE502
:100BA4000DB40305C296020C9EE50D6404705390C7
:100BB400000BE024FF9286900041E024FF92919084
:100BC4000005E024FF928790000DE024FF928090BE
:100BD400003FE0FF24FF929090000EE024FF9283F8
:100BE400900037E024FF92A7900035E024FF92A6FE
:100BF400EF24FF9297900042E024FF9284C2A20265
:100C04000C9EE50D6405704C900004E024FF928670
:100C140090003EE024FF9291900001E024FF92872F
:100C2400900008E024FF9280A3E024FF92909000BB
:100C340036E024FF9283D2A7900003E024FF92A61B
:100C440090003FE024FF9297900007E024FF9284F5
:100C5400C2A18046E50D6406704090000AE024FFBE
:100C6400928690003EE024FF929190000CE024FFD5
:100C74009287900006E024FF9280900038E024FFE1
:100C84009290900040E024FF9283C2A792A692978C
:100C940090003DE024FF9284C2A0050DE50DB40749
:040CA40003E4F50D63
:010CA8002229
:10129E00E52C60030213C4E51F641270030213B53C
:1012AE00E527705CAE25AF267C027D581217EE90B6
:1012BE000039EFF0AE25AF267C027D581217EE7E78
:1012CE00007F3CCFCDCFCECCCE1217EEA3EFF0AE3B
:1012DE0025AF267C007D3C1217EE7E007F0ACFCD17
:1012EE00CFCECCCE1217EEA3EFF0AE25AF267C00FC
:1012FE007D0A1217EEA3EDF09000007401F0803815
:10130E009000397458F0A37450F0AE25AF267C00CF
:10131E007D3C1217EE7E007F0ACFCDCFCECCCE1203
:10132E0017EEA3EFF0AE25AF267C007D0A1217EE66
:10133E00A3EDF0E4900000F0D3E5219400E52094B5
:10134E00005009E51C640160030213E5AE20AF21D5
:10135E007C027D581217EE900039EFF0AE20AF21CF
:10136E007C027D581217EE7E007F3CCFCDCFCECCC7
:10137E00CE1217EEA3EFF0AE20AF217C007D3C1213
:10138E0017EE7E007F0ACFCDCFCECCCE1217EEA3B6
:10139E00EFF0AE20AF217C007D0A1217EEA3EDF028
:1013AE009000007401F0229000397458F0A3F0A35D
:1013BE007462F0A3F0229000397458F0E51B75F0BA
:1013CE000A84A3F0E51B75F00A84A3E5F0F0A3747C
:0813DE0043F0E4900000F0224E
:100CA900E51F64127003020ED9E527600ED3E52112
:100CB9009400E52094005003020DC4AE25AF267CB4
:100CC900027D581217EE900039EFF0AE25AF267C61
:100CD900027D581217EE7E007F3CCFCDCFCECCCE11
:100CE9001217EEA3EFF0AE25AF267C007D3C12175C
:100CF900EE7E007F0ACFCDCFCECCCE1217EEA3EF7A
:100D0900F0AE25AF267C007D0A1217EEA3EDF0D3D5
:100D1900E5219400E52094004054AE20AF217C02E7
:100D29007D581217EE900039EFF0AE20AF217C020A
:100D39007D581217EE7E007F3CCFCDCFCECCCE12A0
:100D490017EEA3EFF0AE20AF217C007D3C1217EE29
:100D59007E007F0ACFCDCFCECCCE1217EEA3EFF017
:100D6900AE20AF217C007D0A1217EEA3EDF0E50F4E
:100D79006401450E700790000004F08020E50F64BF
:100D8900FA450E7006900000F08012D3E50F94F436
:100D9900E50E648094814005E4F50EF50F050FE535
:100DA9000F7002050EE53264016003020EECE531B5
:100DB9006003020EEC90000004F022AE25AF267C01
:100DC900007D3C1217EE7E007F0ACFCDCFCECCCE70
:100DD9001217EE90003BEFF0AE25AF267C007D0A9E
:100DE9001217EEA3EDF0E52F64016003020E979050
:100DF9000000F0E50F6401450E700C900039740A8B
:100E0900F0A37410F0807EE50F64C8450E700C9055
:100E19000039740BF0A37411F0806AE50FB49011D6
:100E2900E50EB4010C900039740CF0A37412F08033
:100E390054E50FB45811E50EB4020C900039740D45
:100E4900F0A37413F0803EE50FB42011E50EB4034E
:100E59000C900039740EF0A37414F08028E50FB4D7
:100E6900E811E50EB4030C900039740FF0A3741562
:100E7900F08012D3E50F94B0E50E648094844005A8
:100E8900E4F50EF50F050FE50F7002050E2290002F
:100E9900397458F0A37450F0E50F6401450E7007DA
:100EA90090000004F08020E50F64FA450E7006906A
:100EB9000000F08012D3E50F94F4E50E648094816C
:100EC9004005E4F50EF50F050FE50F7002050E223A
:100ED9009000397458F0A3F0A37462F0A3F0E49081
:030EE9000000F016
:010EEC0022E3
:101C8C00E4900042F090003DF090000BF0900004C6
:101C9C00F0900001F0900005F090000CF09000091D
:101CAC00F0900038F0900008F0900006F0900041A1
:101CBC00F0900037F0900035F0900003F090000E9B
:101CCC00F0900036F090000DF090003EF0A3F0A3E1
:101CDC00F0E522700C9000397458F0A3F0A3F0A337
:0B1CEC00F0E4900007F090000AF022E6
:101D61009000427401F090003DF090000BF0900063
:101D710004F0900001F0900005F090000CF090004C
:101D810009F0900038F0900008F0900006F0900003
:101D910041F0900037F0900035F0900003F0900092
:101DA1000EF0900036F090000DF090003EF0A3F0A0
:101DB100A3F09000397408F0A3F0A3F0A3F0900011
:091DC100077401F090000AF02201
:101CF700121C8CE4900039F0A3F0A3F0A3F090003D
:101D070000F0E51DB401069000077401F0E51E60C0
:101D1700109000397458F0A3F0A37445F0A3E51EA2
:101D2700F07F807EA97D037C00AB3AAA39A938A849
:101D370037D312188F400D9000397458F0A3F0A3D1
:101D4700F0A3F022E53A2402F53AE43539F539E40F
:0A1D57003538F538E43537F537224A
:101DCA00E52A700890003E04F0E4801CE52AB4017C
:101DDA000C90003E7401F0A3F0E4A3F022E52AB4CB
:0D1DEA00020A90003E7401F0A3F0A3F02265
:10171400E51F14B4120040030217C490172D75F08E
:1017240003A4C58325F0C5837302176302176802F7
:10173400176D02177202177702177C0217810217BE
:101744008602178B02179602179B0217A00217A591
:101754000217AA0217AF0217B40217B90217BE90F4
:101764000042805990003D802190000B801C900025
:1017740004804A9000018012900005804090003758
:10178400800890003580039000037401F0121DCA94
:10179400802E90000E8026900036802190000C80D0
:1017A4001C90000980179000388012900008800D6A
:1017B4009000068008900041800390000D7401F0B1
:1017C400D3E5219400E5209400400890000A7401B8
:1017D400F08005E490000AF0E51DB40107900007CD
:0A17E4007401F022E4900007F022E7
:091EAD00121C8C12129E02171483
:1016120090FF04745BF090FF06F0A3F090FF00F0DF
:1016220090FF03F090FF16F0A3F090FF08F090FFF8
:101632000FF090FF0BF090FF09F0D285D282D28199
:10164200D296D2A2D2A1D2A0E4900002F090FF0CD6
:1016520074C0F0E490FF0BF0D2947F01FE121E974B
:101662003091047F12803A3084047F0280333086C6
:10167200047F04802C30A6047F0B80253083047FF6
:1016820009801E3087047F0680173090047F0F8008
:10169200103080047F1380093097047F1080027F0E
:1016A20000900002EFF0706090FF0CF090FF0B745E
:1016B200C0F0D2937F017E00121E9730A6047F0AEB
:1016C200804130A7047F0C803A3091047F1180332F
:1016D2003086047F03802C3083047F088025308489
:1016E200047F01801E3097047F0E80173087047FAD
:1016F2000580103080047F0780093090047F0D80C0
:10170200027F00900002EFF0E490FF0CF090FF0BDC
:02171200F022C3
:090EED00120EF6120EF6120EF6BA
:100EF600D3E5219400E52094005005E51CB4011FBC
:100F0600741E2521F521E43520F520D3E52194A092
:100F1600E5209405500302110DE4F520F52122E5A4
:100F26001FB4011B0526E52670020525D394A0E50E
:100F3600259405500302110D75250075261422E52A
:100F46001FB402170526E52670020525D3943BE556
:100F5600259400500302110D021107E51FB4031773
:100F66000526E52670020525D3943BE52594005019
:100F76000302110D021107E51FB4041C741E252679
:100F8600F526E43525F525D3E5269458E52594027E
:100F9600500302110D0210A2E51FB405170526E540
:100FA6002670020525D3943BE525940050030211D3
:100FB6000D021107E51FB406170526E52670020582
:100FC60025D3943BE5259400500302110D02110729
:100FD600E51FB407170526E52670020525D3943BC1
:100FE600E5259400500302110D021107E51FB40810
:100FF600170526E52670020525D3943BE5259400C2
:10100600500302110D021107E51FB409170526E565
:101016002670020525D3943BE52594005003021162
:101026000D021107E51FB40A170526E5267002050D
:1010360025D3943BE5259400500302110D021107B8
:10104600E51FB40B170526E52670020525D3943B4C
:10105600E5259400500302110D021107E51FB40C9B
:1010660020741E2526F526E43525F525D3E5269498
:10107600D0E5259402500302110D752501752668E9
:1010860022E51FB40D1D740A2526F526E43525F53F
:1010960025D3E52694A4E5259401406B75250075B6
:1010A600267822E51FB40E130526E52670020525CF
:1010B600D3943BE5259400404E8046E51FB40F13BC
:1010C6000526E52670020525D3943BE525940040C8
:1010D60036802EE51FB410130526E5267002052579
:1010E600D3943BE5259400401E8016E51FB41117E6
:1010F6000526E52670020525D3943BE52594004098
:08110600067525007526012283
:0906F3001206FC1206FC1206FCC2
:1006FC00D3E5219400E52094005005E51CB4011AC3
:10070C00E521452070077520057521A02274E2258E
:10071C0021F52174FF3520F52022E51FB4012AC3F1
:10072C00E5269414E525940050030209D3E526151B
:10073C002670021525E5269414E525940040030245
:10074C0009D37525057526A022E51FB40222C3E541
:10075C00269401E525940050030209D3E5261526BD
:10076C0070021525E526452560030209D30209CE42
:10077C00E51FB40322C3E5269401E525940050033C
:10078C000209D3E526152670021525E526452560B8
:10079C00030209D30209CEE51FB4042FC3E5269446
:1007AC0078E525940050030209D374E22526F5263A
:1007BC0074FF3525F525C3E5269478E5259400408E
:1007CC00030209D375250275265822E51FB40522AC
:1007DC00C3E5269401E525940050030209D3E526D0
:1007EC00152670021525E526452560030209D3025E
:1007FC0009CEE51FB40622C3E5269401E525940035
:10080C0050030209D3E526152670021525E5264569
:10081C002560030209D30209CEE51FB40722C3E504
:10082C00269401E525940050030209D3E5261526EC
:10083C0070021525E526452560030209D30209CE71
:10084C00E51FB40822C3E5269401E5259400500366
:10085C000209D3E526152670021525E526452560E7
:10086C00030209D30209CEE51FB40922C3E526947D
:10087C0001E525940050030209D3E52615267002E4
:10088C001525E526452560030209D30209CEE51F8F
:10089C00B40A22C3E5269401E5259400500302090D
:1008AC00D3E526152670021525E52645256003029D
:1008BC0009D30209CEE51FB40B22C3E5269401E54A
:1008CC0025940050030209D3E52615267002152540
:1008DC00E526452560030209D30209CEE51FB40CB9
:1008EC002FC3E5269468E525940150030209D374BF
:1008FC00E22526F52674FF3525F525C3E5269468F3
:10090C00E525940140030209D37525027526D022F2
:10091C00E51FB40D2FC3E5269478E525940050030C
:10092C000209D374F62526F52674FF3525F525C363
:10093C00E5269478E525940040030209D37525013A
:10094C007526A422E51FB40E1BC3E5269401E525EC
:10095C0094004073E526152670021525E5264525DD
:10096C007065805EE51FB40F1BC3E5269401E52579
:10097C0094004053E526152670021525E5264525DD
:10098C007045803EE51FB4101BC3E5269401E52598
:10099C0094004033E526152670021525E5264525DD
:1009AC007025801EE51FB4111EC3E5269401E525B4
:1009BC0094004013E526152670021525E5264525DD
:0809CC007005F52575263B229C
:1013E600E51F6402702BE5307008F525752623028B
:1013F60014DEE530B401097525007526190214F0CE
:10140600E53064026003021508F52575261E0215EF
:1014160003E51F6403702BE5307008F52575261E5D
:101426000214DEE530B40109752500752614021490
:10143600F0E53064026003021508F52575261902E9
:101446001503E51F6405702BE5307008F525752634
:101456000F0214DEE530B401097525007526050274
:1014660014F0E53064026003021508F52575260AB6
:10147600021503E51F64077025E5307007F525752D
:10148600260F8054E530B4010875250075260A80BC
:1014960059E5306402706BF52575260C805FE51FF3
:1014A60064087025E5307007F5257526288029E53E
:1014B60030B4010875250075261E802EE5306402BD
:1014C6007040F5257526238034E51F64097033E5E1
:1014D60030700CF525752619753001752A0222E53E
:1014E60030B4010D75250075260F753002E4F52A16
:1014F60022E530B4020C752500752614E4F5307526
:031506002A012295
:10002600900002E0FF7003020483E514640160039C
:100036000200F3C3E51694F4E51564809481500B31
:100046000516E516700205150200E50518E518AC5B
:10005600177002051714D39464EC64809480406B87
:10006600EF6410701CE51F6018E5227014120EF67E
:10007600E51F64017050120EED120EF6120EED80A1
:1000860045900002E0640F701CE51F6018E52270C1
:10009600141206FCE51F6401702C1206F31206FC0E
:1000A6001206F38021900002E0B4011AE51FB401A4
:1000B60015E5227011E52CB40102051BE51BD3944E
:1000C6005A4003751B2DE4F517F518900002E0B4AD
:1000D6000D0DE51DB40108E4F51D7F02121999E521
:1000E600226003020486F523F524020486E4F5154E
:1000F600F5167514017F807EA97D03FCAB3AAA39FB
:10010600A938A837C312188F400AE4F53AF539F52D
:1001160038F53722E4F53AF539F538F537E51D6057
:1001260003020472E522600302043E7F011219995C
:10013600E4F523F524900002E0FF64017041E51F19
:1001460064016023751F01E51F25E0240FF582E495
:100156003400F583E0F525A3E0F526E4F520F52146
:10016600F51C751B328014E52CB40102051BE51B3A
:10017600D3945A4003751B2D752C01E40202DCEF63
:1001860064027005751F028075900002E0FF64032B
:100196007005751F038067EFB40424751F04E51FFF
:1001A60025E0240FF582E43400F583E0F525A3E08D
:1001B600F526E4F520F521F51C751B640202AC90CA
:1001C6000002E0FF64057005751F058031EFB40677
:1001D60021751F06E51F25E0240FF582E43400F59E
:1001E60083E0F525A3E0F526E4F520F521F51C02CC
:1001F600027C900002E0FF640C7025751F07E51F66
:1002060025E0240FF582E43400F583E0F525A3E02C
:10021600F526E4F520F521F51CF530752A01805602
:10022600EF640B7025751F08E51F25E0240FF58286
:10023600E43400F583E0F525A3E0F526E4F520F5A2
:1002460021F51CF530752A01802C900002E0FF6430
:100256000A702E751F09E51F25E0240FF582E43488
:1002660000F583E0F525A3E0F526E4F520F521F574
:100276001CF530752A01751BA5752701F532020498
:1002860033EFB40928751F0AE51F25E0240FF58210
:10029600E43400F583E0F525A3E0F526E4F520F542
:1002A60021F51C751BA5F527F532020433900002D3
:1002B600E0FFB40829751F0BE51F25E0240FF58222
:1002C600E43400F583E0F525A3E0F526E4F520F512
:1002D60021F51C751B5AF527753201020433EF64AC
:1002E60012703BE52D7008751F0C751B28800CE5F8
:1002F6002DB4010D751F0D751B28E4F527F5328009
:1003060011E52DB4020C751F0E751BA5752701E4AA
:10031600F532052DE52DB40303E4F52D803F90005D
:1003260002E0FF6413704DE52E700D751F0F751BEF
:10033600A5752701F532801BE52EB40105751F1042
:100346008008E52EB4020C751F11751BA5752701D3
:10035600E4F532052EE52EB40303E4F52EE51F255C
:10036600E0240FF582E43400F583E0F525A3E0F5FB
:1003760026020400E51F7038EF64077033751F12FC
:10038600E51F25E0240FF582E43400F583E0F5252A
:10039600A3E0F526E4F520F521F51C751B3CF527B1
:1003A600F5327523097524C47528057529DC807D09
:1003B600E51F600C900002E0B40705E4F51F806DB0
:1003C600900002E0FFB40D05751D018060EF640E1C
:1003D6007031E52145207022E51F6401601CE51F90
:1003E600640C6016E51F640D6010E51F6412600A58
:1003F600E4F520F521751C018033E4F520F521F59F
:100406001C802AEFB4100CE51F6008E4F52C120ED0
:10041600F6801AEFB40F0CE51F6008E4F52C1206FF
:10042600FC800AEFB41106E4F52C1213E6E51F640E
:10043600016039E4F52C8034900002E0B407087FAF
:1004460001121999E4F51F900002E0B40D087F012E
:10045600121999751D01900002E0B4010FE51FB451
:10046600010A7F01121999E4F528F529900002E0A6
:10047600B40D0D7F01121999751D018003E4F51461
:10048600E51F70030206CEE51E60030206CEC3E535
:100496002494C4E523940940030205580524E52461
:1004A600700205236401452370028044E52464FA42
:1004B600452370028079E524B4F407E523B40102EC
:1004C600802EE524B4EE07E523B402028061E5241C
:1004D600B4E807E523B403028016E524B4E207E591
:1004E60023B404028049E524B4DC0AE523B40505F7
:1004F600121EAD8056E524B4D607E523B406028065
:100506002EE524B4D01FE523B4071A121EADE5214B
:1005160045207037E51C70337F021219997523093F
:100526007524C48026E524B4CA0FE523B4080A124C
:100536001C8CE4900000F08012E524B4C00DE52385
:10054600B40908121EAD7F0212199975280575297E
:10055600DC22752201E4F51CC3E52994DCE5289428
:1005660005502B0529E52970020528900039745895
:10057600F0E51B75F00A84A3F0E51B75F00A84A369
:10058600E5F0F0A37443F0E4900000F08009121C3B
:100596008C120CA9121714D3E5219400E5209400BF
:1005A6004006C2B4E4F52F22D3E5269400E525944F
:1005B60000500302069DAF1B7E00E5349FE5339E87
:1005C600502F20A42CE5342402FDE43533FCC3ED82
:1005D6009FEC9E5024D2B4752F01E53E2401F53ED2
:1005E600E4353DF53DE4353CF53CE4353BF53B80F3
:1005F60008C2B4E4F52F753101E51F6401600302FA
:0B06060006F2E52F640160030206F21B
:10061100E531640160030206F2E5132402F513E4F7
:100621003512F512E43511F511E43510F510E51B1D
:10063100C394465030E47F107E27FDFCAB13AA1211
:10064100A911A810C312188F50030206F2E47F20EB
:100651007E4EFDFCAB13AA12A911A810C312188F6C
:100661005030C2B422E47F987E3AFDFCAB13AA124B
:10067100A911A810C312188F4077E47FA87E61FDED
:10068100FCAB13AA12A911A810C312188F5003C2F0
:0B069100B422E4F513F512F511F5108A
:10069C0022E51F64126027751F12E51F25E0240F49
:1006AC00F582E43400F583E0F525A3E0F526E4F5C6
:1006BC0020F521751B3C752B017F05021999E4F57A
:1006CC001F22121CF7E4F525F526F51BF522F52063
:1006DC00F521F523F524F535F536C2B4F52FF531B2
:0606EC00F51CF52EF52DB2
:0106F20022E5
:101B9800E4F540F541758E5190FE9104F0121E381F
:101BA80012000E121C21D2AF90FF1C74C0F090FFDF
:101BB800147460F0121D617F021219990541E54104
:101BC800AE407002054014C394F4EE6480948150D2
:101BD800117F027E00121E1DE4FF1219991209D40A
:101BE80080DA7F027E00121E1D12161212002612C3
:101BF80009D4E4FF121999121DF7D3E5419464E55D
:101C0800406480948040081218C6E4F540F5410508
:091C180041E54170CD054080C991
:03000B00021A6472
:101A6400C0E0C0F0C083C082C0D075D000C000C048
:0D1A740001C002C003C004C005C006C007C9
:101A8100E52264017064051AE51AAE1970020519A0
:101A910014FFE4FCFD7B607AEAF9F8C3121879506F
:101AA1004F751900751A00E5219400E52094004056
:101AB1000AE5211521700215208035D3E526940011
:101AC100E5259400402AE52764016005E532B4016B
:101AD1000FE531B4011AE52615267002152580108F
:101AE100E5261526700215258006751900751A0060
:101AF100D007D006D005D004D003D002D001D00049
:0B1B0100D0D0D082D083D0F0D0E032F2
:03002300020003D5
:0100030032CA
:101B1800021B98E493A3F8E493A34003F68001F230
:101B280008DFF48029E493A3F85407240CC8C333CE
:101B3800C4540F4420C8834004F456800146F6DF9D
:101B4800E4800B0102040810204080901509E47E0F
:101B5800019360BCA3FF543F30E509541FFEE49392
:101B6800A360010ECF54C025E060A840B8E493A359
:101B7800FAE493A3F8E493A3C8C582C8CAC583CA84
:101B8800F0A3C8C582C8CAC583CADFE9DEE780BE3C
:0116110000D8
:1017EE00BC000BBE0029EF8DF084FFADF022E4CCDF
:1017FE00F875F008EF2FFFEE33FEEC33FCEE9DECA8
:10180E00984005FCEE9DFE0FD5F0E9E4CEFD22EDED
:10181E00F8F5F0EE8420D21CFEADF075F008EF2F37
:10182E00FFED33FD4007985006D5F0F222C398FD28
:05183E000FD5F0EA22C5
:10184300C2D5EC30E709B2D5E4C39DFDE49CFCEEC0
:1018530030E715B2D5E4C39FFFE49EFE1217EEC333
:10186300E49DFDE49CFC80031217EE30D507C3E42E
:061873009FFFE49EFE222F
:10187900EB9FF5F0EA9E42F0E99D42F0EC6480C8E6
:0618890064809845F02286
:10188F00EB9FF5F0EA9E42F0E99D42F0E89C45F0AF
:01189F002226
:1018A000D083D082F8E4937012740193700DA3A3D7
:1018B00093F8740193F5828883E4737402936860EB
:0618C000EFA3A3A380DFEB
:00000001FF
