:03000000021B9749
:0C1B9700787FE4F6D8FD758145021BDE66
:10117B00004200450049004D005100550059005EEA
:10118B0000620067006C00720077007D00830089AD
:10119B0000900096009E00A500AD00B400BD00C5F8
:1011AB0000CE00D700E100EA00F400FE01080113B5
:1011BB00011E012A01360142014E015B01690176D4
:1011CB000184019201A101B001C001D001E001F144
:1011DB000202021402250238024B025E02710285E2
:1011EB00029A02AF02C402DA02F00306031D0334B3
:1011FB00034C0364037C039503AE03C703E103FBBA
:10120B00041604310D4204670483049F04BB04D706
:10121B0004F40511052E054B0569058605A405C2C9
:10122B0005E005FF061D063C065A0679069806B62C
:10123B0006D506F307120731074F076D078C07AA70
:10124B0007C807E608030821083E085B08780895DD
:10125B0008B208CE08EA09060921094D0958097395
:10126B00098D09A709C109DB09F40A0D0A260A3EF3
:10127B000A560A6E0A850A9C0AB30ACA0AE00AF6DB
:10128B000B0C0B210B360B4B0B5F0B730B870B9B59
:10129B000BAE0BC10BD40BE60BF80C0A0C1B0C2C76
:1012AB000C3D0C4E0C5F0C6F0C7F0C8E0C9E0CAD22
:1012BB000CBC0CCB0CD90CE70CF50D030D110D1E52
:1012CB000D2B0D380D440D510D5D0D690D750D80F8
:1012DB000D8C0D970DA20DAD0DB70DC20DCC0DD60E
:1012EB000DDD0DE90DF30DFC0E050E0E0E170E1F89
:1012FB000E280E300E380E400E480E4F0E570E5E57
:101594004100420041003D0041000B0041000400B5
:1015A400410001004100050041000C004100090018
:1015B400410038004100080041000600410041009C
:1015C40041003700410035004100030041000E0096
:1015D4004100360041000D0043003E000000410080
:1015E400070041000A00410000004100020060269B
:1015F400000F000000F0001E001900F0000A000FA8
:10160400000C002300140005000F025800B400026F
:101614000030001E000D05A002250000011B000182
:101624003F00011F000122000235000002200000DB
:1016340002230000011D00013000012C00022800DB
:1016440000011E00012700013200012A00013100BF
:10165400012B00012F0002330000043B00000000B6
:10166400011C00043700000000012D00012E0001C0
:101674000A00020B0000010800010900010D00022C
:101684000E000001140002150000021700000410EF
:08169400000000000219000033
:041F22008E428F4319
:061F2600E4FF0FBF03FC05
:011F2C002292
:101EF600EF1FAA0670011E4A600BE4FDEDC394476E
:051F060050EE0D80F714
:011F0B0022B3
:101EA8008F828E83E5821582AE83700215834E6021
:0B1EB800097F147E00121EF680EA2253
:101EDD0090FF0D74C2F090FFA07415F075CC0675CF
:091EED00CEFF75CD98759E02220E
:0B1F2D008F99E59830E1FB5398FD22EE
:10000E00E490FE80F0F589758CFA758ACB43A802D0
:04001E0043881022E1
:101A2400E50A7015750A0190FF1D74C2F090FF9CC1
:101A34007435F075DE2075DF10BF010B75DD977509
:101A44000B00750C328036BF020B75DD97750B00E9
:101A5400750C648028BF030B75DD97750B00750C3E
:101A6400FA801ABF040B75DD97750B09750CC480D9
:101A74000CBF050975DD97750B01750C2CD3E50CAE
:101A84009400E50B648094804060E50C150C7002B2
:101A9400150BE51E6021AE0BAF0C7C007D7D12188A
:051AA400CEED4C7012B4
:101AA900E508700875DD07750801800675DD97E49E
:021AB900F5082E
:101ABB00E52B64017024E51E7020AE0BAF0CFC7D92
:081ACB00321218CEED4C70122E
:101AD300E509700875DD07750901800675DD97E472
:021AE300F50903
:091AE500E50C450B700375DD07EB
:011AEE0022D5
:101EC30090FF157402F075B4807F017E00121EF638
:0A1ED30075B50D90FE9B744BF022D4
:061F0C00FE7F02121EA878
:101F120043B440E5B430E5FB53B4DFAFB6AEB7220D
:10195100E4F542F543121F128E448F45E4F542F53A
:1019610043E54325E0FFE54233FE747B2FF58274A6
:10197100113EF583D37401939545E4939544500E3C
:101981000543E5437002054264C8454270D3E52131
:1019910045207032E5226401702CE54545447026EE
:1019A100E51E70227F307E75FDFCAB3EAA3DA93C51
:1019B100A83BD312191A40647E00121F0DEF4E701E
:1019C1005B751E018051E52145207025E522B4019A
:1019D10020C3E54594FAE544940F4015E51E7011C6
:1019E100121F0CC3EF94FAEE940F4030751E028063
:1019F10026E52145207025E522B40120D3E5459453
:101A01005CE544940E4015E51E7011121F0CD3EFD6
:101A1100945CEE940E40057F04121A2485423385AE
:021A210043344C
:011A230022A0
:101E8200E5214520701FE522B4011AC3E5349450C0
:101E9200E5339400500F30A40CE51E7008751E0443
:061EA2007F04121A242245
:101CAC0090FF1274C4F090FF11F090FF10F090FFB1
:101CBC0005F090FF02F090FF01F090FF0EF090FF06
:101CCC000674C0F090FF09F090FF07F090FF00F051
:101CDC0090FF08F090FF03F090FF17F090FF16F0C4
:101CEC0090FF0FF090FF04F0D285D282D281D29671
:101CFC00D2A2D2A1D2A0C286C291C287C280C29007
:0B1D0C00C283C2A7C2A6C297C28422F5
:100A4100121CACD285D282D281D296D2A2D2A1D2AC
:100A5100A0C286C291C287C280C290C283C2A7C20D
:100A6100A6C297C284C3E50D648094844003020B3F
:100A7100EBAF0DEF3395E0FE74392FF58274003E34
:100A8100F583E012192B0B91000ADC010ADF020A3F
:100A9100EB030AF7040B01050B0B060B0F070B11F8
:100AA100080B17090B650A0B6B0B0B710C0B790DFE
:100AB1000B850E0B910F0B9D100BA9110BB5120B92
:100AC100C1130BCD140B91150B2F2D0B4C430B2385
:100AD100450B40500B546200000BDD020B6BD284BE
:100AE100D280C291D287D286804ED284D280D291D6
:100AF100D287C2868042C284D280D291C287801EB0
:100B0100D284C280D291D2878014D28480478060FF
:100B1100D284D2808041D284D280D291D287C286BF
:100B2100803BD284C280C291D287D286802FC28478
:100B3100C280C291C287C286C283D297020BEBD216
:100B410084D280C291C287D2868012D284C280C2EE
:100B5100918043C284C280D291D287D286D283D27D
:100B610097020BEBC284C280800AC284D2808004C7
:100B7100D284D280D291806AD284D280D291C2872B
:100B8100C2868052D284D280D291C287D2868046D8
:100B9100D284D280D291D287D286803AC284C28056
:100BA100C291C287D286803EC284C280C291C2876E
:100BB100D2868022D284C280C291C287D286801618
:100BC100D284D280C291C287D286800AD284D28056
:100BD100D291C287D286D283C297800EC284C2804C
:100BE100C291C287C286C283C297E50D7005C285D4
:100BF100020D0BE50DB4010DC282900000E024FF4F
:100C01009290020D0BE50DB40205C281020D0BE5B8
:100C11000DB40305C296020D0BE50D6404705390EB
:100C2100000BE024FF9286900041E024FF92919016
:100C31000005E024FF928790000DE024FF92809050
:100C4100003FE0FF24FF929090000EE024FF92838A
:100C5100900037E024FF92A7900035E024FF92A690
:100C6100EF24FF9297900042E024FF9284C2A202F7
:100C71000D0BE50D6405704C900004E024FF928695
:100C810090003EE024FF9291900001E024FF9287C2
:100C9100900008E024FF9280A3E024FF929090004E
:100CA10036E024FF9283D2A7900003E024FF92A6AE
:100CB10090003FE024FF9297900007E024FF928488
:100CC100C2A18046E50D6406704090000AE024FF51
:100CD100928690003EE024FF929190000CE024FF68
:100CE1009287900006E024FF9280900038E024FF74
:100CF1009290900040E024FF9283C2A792A692971F
:100D010090003DE024FF9284C2A0050DE50DB407DB
:040D110003E4F50DF5
:010D150022BB
:10130B00E52C6003021431E51F64127003021422F2
:10131B00E527705CAE25AF267C027D5812187990BC
:10132B000039EFF0AE25AF267C027D581218797E7E
:10133B00007F3CCFCDCFCECCCE121879A3EFF0AE41
:10134B0025AF267C007D3C1218797E007F0ACFCD1D
:10135B00CFCECCCE121879A3EFF0AE25AF267C0002
:10136B007D0A121879A3EDF09000007401F080381B
:10137B009000397458F0A37450F0AE25AF267C0062
:10138B007D3C1218797E007F0ACFCDCFCECCCE120A
:10139B001879A3EFF0AE25AF267C007D0A121879E1
:1013AB00A3EDF0E4900000F0D3E5219400E5209448
:1013BB00005009E51C64016003021452AE20AF21FA
:1013CB007C027D58121879900039EFF0AE20AF21D6
:1013DB007C027D581218797E007F3CCFCDCFCECCCE
:1013EB00CE121879A3EFF0AE20AF217C007D3C121A
:1013FB0018797E007F0ACFCDCFCECCCE121879A331
:10140B00EFF0AE20AF217C007D0A121879A3EDF02E
:10141B009000007401F0229000397458F0A3F0A3EF
:10142B007462F0A3F0229000397458F0E51B75F04C
:10143B000A84A3F0E51B75F00A84A3E5F0F0A3740E
:08144B0043F0E4900000F022E0
:100D1600E51F64127003020F46E527600ED3E52136
:100D26009400E52094005003020E31AE25AF267CD8
:100D3600027D58121879900039EFF0AE25AF267C67
:100D4600027D581218797E007F3CCFCDCFCECCCE17
:100D5600121879A3EFF0AE25AF267C007D3C121861
:100D6600797E007F0ACFCDCFCECCCE121879A3EFF5
:100D7600F0AE25AF267C007D0A121879A3EDF0D3DC
:100D8600E5219400E52094004054AE20AF217C027A
:100D96007D58121879900039EFF0AE20AF217C0211
:100DA6007D581218797E007F3CCFCDCFCECCCE12A7
:100DB6001879A3EFF0AE20AF217C007D3C121879A4
:100DC6007E007F0ACFCDCFCECCCE121879A3EFF01E
:100DD600AE20AF217C007D0A121879A3EDF0E50F55
:100DE6006401450E700790000004F08020E50F6452
:100DF600FA450E7006900000F08012D3E50F94F4C9
:100E0600E50E648094814005E4F50EF50F050FE5C7
:100E16000F7002050EE53264016003020F59E531D9
:100E26006003020F5990000004F022AE25AF267C25
:100E3600007D3C1218797E007F0ACFCDCFCECCCE76
:100E460012187990003BEFF0AE25AF267C007D0AA4
:100E5600121879A3EDF0E52F64016003020F0490E8
:100E66000000F0E50F6401450E700C900039740A1D
:100E7600F0A37410F0807EE50F64C8450E700C90E8
:100E86000039740BF0A37411F0806AE50FB4901169
:100E9600E50EB4010C900039740CF0A37412F080C6
:100EA60054E50FB45811E50EB4020C900039740DD8
:100EB600F0A37413F0803EE50FB42011E50EB403E1
:100EC6000C900039740EF0A37414F08028E50FB46A
:100ED600E811E50EB4030C900039740FF0A37415F5
:100EE600F08012D3E50F94B0E50E6480948440053B
:100EF600E4F50EF50F050FE50F7002050E229000C2
:100F0600397458F0A37450F0E50F6401450E70076C
:100F160090000004F08020E50F64FA450E700690FC
:100F26000000F08012D3E50F94F4E50E64809481FE
:100F36004005E4F50EF50F050FE50F7002050E22CC
:100F46009000397458F0A3F0A37462F0A3F0E49013
:030F56000000F0A8
:010F59002275
:101D1700E4900042F090003DF090000BF09000043A
:101D2700F0900001F0900005F090000CF090000991
:101D3700F0900038F0900008F0900006F090004115
:101D4700F0900037F0900035F0900003F090000E0F
:101D5700F0900036F090000DF090003EF0A3F0A355
:101D6700F0E522700C9000397458F0A3F0A3F0A3AB
:0B1D7700F0E4900007F090000AF0225A
:101DEC009000427401F090003DF090000BF09000D8
:101DFC0004F0900001F0900005F090000CF09000C1
:101E0C0009F0900038F0900008F0900006F0900077
:101E1C0041F0900037F0900035F0900003F0900006
:101E2C000EF0900036F090000DF090003EF0A3F014
:101E3C00A3F09000397408F0A3F0A3F0A3F0900085
:091E4C00077401F090000AF02275
:101D8200121D17E4900039F0A3F0A3F0A3F0900025
:101D920000F0E51DB401069000077401F0E51E6035
:101DA200109000397458F0A3F0A37445F0A3E51E17
:101DB200F07F807EA97D037C00AB3AAA39A938A8BE
:101DC20037D312191A400D9000397458F0A3F0A3BA
:101DD200F0A3F022E53A2402F53AE43539F539E484
:0A1DE2003538F538E43537F53722BF
:101E5500E52A700890003E04F0E4801CE52AB401F0
:101E65000C90003E7401F0A3F0E4A3F022E52AB43F
:0D1E7500020A90003E7401F0A3F0A3F022D9
:10179F00E51F14B41200400302184F9017B875F0EC
:1017AF0003A4C58325F0C583730217EE0217F30256
:1017BF0017F80217FD02180202180702180C021878
:1017CF001102181602182102182602182B021830BF
:1017DF0002183502183A02183F02184402184990AD
:1017EF000042805990003D802190000B801C90009A
:1017FF0004804A90000180129000058040900037CD
:10180F00800890003580039000037401F0121E557C
:10181F00802E90000E8026900036802190000C8044
:10182F001C90000980179000388012900008800DDE
:10183F009000068008900041800390000D7401F025
:10184F00D3E5219400E5209400400890000A74012C
:10185F00F08005E490000AF0E51DB4010790000741
:0A186F007401F022E4900007F0225B
:091F3800121D1712130B02179F72
:10169D0090FF04745BF090FF06F0A3F090FF00F054
:1016AD0090FF03F090FF16F0A3F090FF08F090FF6D
:1016BD000FF090FF0BF090FF09F0D285D282D2810E
:1016CD00D296D2A2D2A1D2A0E4900002F090FF0C4B
:1016DD0074C0F0E490FF0BF0D2947F01FE121F2234
:1016ED003091047F12803A3084047F02803330863B
:1016FD00047F04802C30A6047F0B80253083047F6B
:10170D0009801E3087047F0680173090047F0F807C
:10171D00103080047F1380093097047F1080027F82
:10172D0000900002EFF0706090FF0CF090FF0B74D2
:10173D00C0F0D2937F017E00121F2230A6047F0AD3
:10174D00804130A7047F0C803A3091047F118033A3
:10175D003086047F03802C3083047F0880253084FD
:10176D00047F01801E3097047F0E80173087047F21
:10177D000580103080047F0780093090047F0D8034
:10178D00027F00900002EFF0E490FF0CF090FF0B51
:02179D00F02238
:090F5A00120F63120F63120F6302
:100F6300D3E5219400E52094005005E51CB4011F4E
:100F7300741E2521F521E43520F520D3E52194A025
:100F8300E5209405500302117AE4F520F52122E5CA
:100F93001FB4011B0526E52670020525D394A0E5A1
:100FA300259405500302117A75250075261422E550
:100FB3001FB402170526E52670020525D3943BE5E9
:100FC300259400500302117A021174E51FB403172C
:100FD3000526E52670020525D3943BE525940050AC
:100FE3000302117A021174E51FB4041C741E252632
:100FF300F526E43525F525D3E5269458E525940211
:10100300500302117A02110FE51FB405170526E5F7
:101013002670020525D3943BE52594005003021165
:101023007A021174E51FB406170526E5267002053A
:1010330025D3943BE5259400500302117A021174E1
:10104300E51FB407170526E52670020525D3943B53
:10105300E5259400500302117A021174E51FB408C8
:10106300170526E52670020525D3943BE525940054
:10107300500302117A021174E51FB409170526E51E
:101083002670020525D3943BE525940050030211F5
:101093007A021174E51FB40A170526E526700205C6
:1010A30025D3943BE5259400500302117A02117471
:1010B300E51FB40B170526E52670020525D3943BDF
:1010C300E5259400500302117A021174E51FB40C54
:1010D30020741E2526F526E43525F525D3E526942B
:1010E300D0E5259402500302117A7525017526680F
:1010F30022E51FB40D1D740A2526F526E43525F5D2
:1011030025D3E52694A4E5259401406B7525007548
:10111300267822E51FB40E130526E5267002052561
:10112300D3943BE5259400404E8046E51FB40F134E
:101133000526E52670020525D3943BE5259400405A
:1011430036802EE51FB410130526E526700205250B
:10115300D3943BE5259400401E8016E51FB4111778
:101163000526E52670020525D3943BE5259400402A
:08117300067525007526012216
:090760001207691207691207690A
:10076900D3E5219400E52094005005E51CB4011A55
:10077900E521452070077520057521A02274E22521
:1007890021F52174FF3520F52022E51FB4012AC384
:10079900E5269414E52594005003020A40E5261540
:1007A9002670021525E5269414E5259400400302D8
:1007B9000A407525057526A022E51FB40222C3E566
:1007C900269401E52594005003020A40E5261526E2
:1007D90070021525E52645256003020A40020A3BF9
:1007E900E51FB40322C3E5269401E52594005003CF
:1007F900020A40E526152670021525E526452560DD
:1008090003020A40020A3BE51FB4042FC3E52694FC
:1008190078E52594005003020A4074E22526F5265E
:1008290074FF3525F525C3E5269478E52594004020
:1008390003020A4075250275265822E51FB40522D0
:10084900C3E5269401E52594005003020A40E526F4
:10085900152670021525E52645256003020A400282
:100869000A3BE51FB40622C3E5269401E525940059
:100879005003020A40E526152670021525E526458E
:10088900256003020A40020A3BE51FB40722C3E5BB
:10089900269401E52594005003020A40E526152611
:1008A90070021525E52645256003020A40020A3B28
:1008B900E51FB40822C3E5269401E52594005003F9
:1008C900020A40E526152670021525E5264525600C
:1008D90003020A40020A3BE51FB40922C3E5269434
:1008E90001E52594005003020A40E5261526700209
:1008F9001525E52645256003020A40020A3BE51F46
:10090900B40A22C3E5269401E52594005003020A9E
:1009190040E526152670021525E5264525600302C2
:100929000A40020A3BE51FB40B22C3E5269401E500
:100939002594005003020A40E52615267002152564
:10094900E52645256003020A40020A3BE51FB40C6F
:100959002FC3E5269468E52594015003020A4074E3
:10096900E22526F52674FF3525F525C3E526946885
:10097900E52594014003020A407525027526D02217
:10098900E51FB40D2FC3E5269478E525940050039F
:10099900020A4074F62526F52674FF3525F525C388
:1009A900E5269478E52594004003020A407525015F
:1009B9007526A422E51FB40E1BC3E5269401E5257F
:1009C90094004073E526152670021525E526452570
:1009D9007065805EE51FB40F1BC3E5269401E5250C
:1009E90094004053E526152670021525E526452570
:1009F9007045803EE51FB4101BC3E5269401E5252B
:100A090094004033E526152670021525E52645256F
:100A19007025801EE51FB4111EC3E5269401E52546
:100A290094004013E526152670021525E52645256F
:080A39007005F52575263B222E
:10145300E51F640270307F01121A24E5307008F52D
:1014630025752623021569E530B401097525007534
:10147300261902157BE53064026003021593F525F6
:1014830075261E02158EE51F640370307F01121A44
:1014930024E5307008F52575261E021569E530B47C
:1014A300010975250075261402157BE53064026079
:1014B30003021593F52575261902158EE51F64059C
:1014C30070307F01121A24E5307008F52575260F58
:1014D300021569E530B40109752500752605021565
:1014E3007BE53064026003021593F52575260A0235
:1014F300158EE51F6407702A7F01121A24E53070E8
:1015030007F52575260F805EE530B40108752500C3
:1015130075260A8063E53064027075F52575260C1F
:101523008069E51F6408702A7F01121A24E5307070
:1015330007F525752628802EE530B40108752500AA
:1015430075261E8033E53064027045F52575262324
:101553008039E51F640970387F01121A24E5307061
:101563000CF525752619753001752A0222E530B46C
:10157300010D75250075260F753002E4F52A22E565
:1015830030B4020C752500752614E4F530752A0174
:011593002235
:10002600900002E0FF70030204F0E514640160032F
:100036000200F3C3E51694F4E51564809481500B31
:100046000516E516700205150200E50518E518AC5B
:10005600177002051714D39464EC64809480406B87
:10006600EF6410701CE51F6018E5227014120F6310
:10007600E51F64017050120F5A120F63120F5A8057
:1000860045900002E0640F701CE51F6018E52270C1
:1000960014120769E51F6401702C120760120769C4
:1000A6001207608021900002E0B4011AE51FB40136
:1000B60015E5227011E52CB40102051BE51BD3944E
:1000C6005A4003751B2DE4F517F518900002E0B4AD
:1000D6000D0DE51DB40108E4F51D7F02121A24E595
:1000E6002260030204F3F523F5240204F3E4F51574
:1000F600F5167514017F807EA97D03FCAB3AAA39FB
:10010600A938A837C312191A400AE4F53AF539F5A1
:1001160038F53722E4F53AF539F538F537E51D6057
:10012600030204DFE52260030204ABF523F5249005
:100136000002E0FB640170467F01121A24E51F6489
:10014600016023751F01E51F25E0240FF582E434C5
:1001560000F583E0F525A3E0F526E4F520F521F585
:100166001C751B328014E52CB40102051BE51BD35C
:10017600945A4003751B2D752C01E4020312EB649F
:1001860002700B7F01121A24751F020202249000CE
:1001960002E0FB6403700A7F01121A24751F0380B4
:1001A6007DEB640470297F01121A24751F04E51F74
:1001B60025E0240FF582E43400F583E0F525A3E07D
:1001C600F526E4F520F521F51C751B640202DC908A
:1001D6000002E0FB6405700A7F01121A24751F05F0
:1001E600803CEB640670267F01121A24751F06E513
:1001F6001F25E0240FF582E43400F583E0F525A3FE
:10020600E0F526E4F520F521F51C0202A690000291
:10021600E0FB640C702A7F01121A24751F07E51F84
:1002260025E0240FF582E43400F583E0F525A3E00C
:10023600F526E4F520F521F51CF530752A018060D8
:10024600EB640B702A7F01121A24751F08E51F251F
:10025600E0240FF582E43400F583E0F525A3E0F50C
:1002660026E4F520F521F51CF530752A018031903C
:100276000002E0FB640A70337F01121A24751F091D
:10028600E51F25E0240FF582E43400F583E0F5252B
:10029600A3E0F526E4F520F521F51CF530752A01D5
:1002A600751BA5752701F5320204A0EB6409702DB4
:1002B6007F01121A24751F0AE51F25E0240FF58217
:1002C600E43400F583E0F525A3E0F526E4F520F512
:1002D60021F51C751BA5F527F5320204A090000236
:1002E600E0FB6408702E7F01121A24751F0BE51FB0
:1002F60025E0240FF582E43400F583E0F525A3E03C
:10030600F526E4F520F521F51C751B5AF5277532FF
:10031600010204A0EB641270407F01121A24E52D3D
:100326007008751F0C751B28800CE52DB4010D7522
:100336001F0D751B28E4F527F5328011E52DB40253
:100346000C751F0E751BA5752701E4F532052DE505
:100356002DB40303E4F52D8044900002E0FB641302
:1003660070527F01121A24E52E700D751F0F751B32
:10037600A5752701F532801BE52EB40105751F1002
:100386008008E52EB4020C751F11751BA575270193
:10039600E4F532052EE52EB40303E4F52EE51F251C
:1003A600E0240FF582E43400F583E0F525A3E0F5BB
:1003B6002602045CE51F703EEB640770397F01126C
:1003C6001A24751F12E51F25E0240FF582E4340078
:1003D600F583E0F525A3E0F526E4F520F521F51CE7
:1003E600751B3CF527F5327523097524C475280558
:1003F6007529DC0204A0E51F6012900002E0B40734
:100406000B7F01121A24E4F51F0204A0900002E0FB
:10041600FBB40D0A7F01121A24751D01807CEB6462
:100426000E703C7F01121A24E52145207028E51F35
:1004360064016022E51F640C601CE51F640D6016F4
:10044600E51F64126010E51F6406600AE4F520F5F6
:1004560021751C018044E4F520F521F51C803B90B4
:100466000002E0B41011E51F600D7F01121A24E4AA
:10047600F52C120F638023900002E0FBB40F11E508
:100486001F600D7F01121A24E4F52C120769800AF9
:10049600EBB41106E4F52C121453E51F6401603920
:1004A600E4F52C8034900002E0B407087F01121AAC
:1004B60024E4F51F900002E0B40D087F01121A240F
:1004C600751D01900002E0B4010FE51FB4010A7F1B
:1004D60001121A24E4F528F529900002E0B40D0D66
:1004E6007F01121A24751D018003E4F514E51F70BF
:1004F6000302073BE51E600302073BC3E52494C4E1
:10050600E523940940030205C50524E52470020588
:10051600236401452370028044E52464FA45237070
:10052600028079E524B4F407E523B40102802EE5C0
:1005360024B4EE07E523B402028061E524B4E8079B
:10054600E523B403028016E524B4E207E523B404E8
:10055600028049E524B4DC0AE523B40505121F38F8
:100566008056E524B4D607E523B40602802EE5249A
:10057600B4D01FE523B4071A121F38E521452070B1
:1005860037E51C70337F02121A247523097524C4BB
:100596008026E524B4CA0FE523B4080A121D17E421
:1005A600900000F08012E524B4C00DE523B40908DC
:1005B600121F387F02121A247528057529DC227548
:1005C6002201E4F51CC3E52994DCE5289405502BAB
:1005D6000529E529700205289000397458F0E51BB5
:1005E60075F00A84A3F0E51B75F00A84A3E5F0F024
:1005F600A37443F0E4900000F08009121D17120D59
:100606001612179FD3E5219400E52094004006C2F8
:10061600B4E4F52F22D3E5269400E5259400500393
:1006260002070AAF1B7E00E5349FE5339E502F205C
:10063600A42CE5342405FDE43533FCC3ED9FEC9E84
:100646005024D2B4752F01E53E2401F53EE4353D34
:10065600F53DE4353CF53CE4353BF53B8008C2B45A
:10066600E4F52F753101E51F6401600302075FE5BC
:080676002F6401600302075F1D
:10067E00E5316401600302075FE5132402F513E41C
:10068E003512F512E43511F511E43510F510E51BB0
:10069E00C394465030E47F107E27FDFCAB13AA12A4
:1006AE00A911A810C312191A500302075FE47F2084
:1006BE007E4EFDFCAB13AA12A911A810C312191A73
:1006CE005030C2B422E47F987E3AFDFCAB13AA12DE
:1006DE00A911A810C312191A4077E47FA87E61FDF4
:1006EE00FCAB13AA12A911A810C312191A5003C2F7
:0B06FE00B422E4F513F512F511F5101D
:1007090022E51F64126027751F12E51F25E0240FDB
:10071900F582E43400F583E0F525A3E0F526E4F558
:1007290020F521751B3C752B017F05021A24E4F580
:100739001F22121D82E4F525F526F51BF522F52069
:10074900F521F523F524F535F536C2B4F52FF53144
:06075900F51CF52EF52D44
:01075F002277
:101C2300E4F540F541758E5190FE9104F0121EC308
:101C330012000E121CACD2AF90FF1C74C0F090FFC8
:101C4300147460F0121DEC7F02121A240541E54161
:101C5300AE407002054014C394F4EE648094815046
:101C6300117F027E00121EA8E4FF121A24120A41F9
:101C730080DA7F027E00121EA812169D1200261221
:101C83000A41E4FF121A24121E82D3E5419464E54B
:101C930040648094804008121951E4F540F54105F1
:091CA30041E54170CD054080C906
:03000B00021AEFE7
:101AEF00C0E0C0F0C083C082C0D075D000C000C0BD
:0D1AFF0001C002C003C004C005C006C0073E
:101B0C00E52264017064051AE51AAE197002051914
:101B1C0014FFE4FCFD7B607AEAF9F8C31219045057
:101B2C004F751900751A00E5219400E520940040CA
:101B3C000AE5211521700215208035D3E526940085
:101B4C00E5259400402AE52764016005E532B401DF
:101B5C000FE531B4011AE526152670021525801003
:101B6C00E5261526700215258006751900751A00D4
:101B7C00D007D006D005D004D003D002D001D000BD
:0B1B8C00D0D0D082D083D0F0D0E03267
:03002300020003D5
:0100030032CA
:101BA300021C23E493A3F8E493A34003F68001F219
:101BB30008DFF48029E493A3F85407240CC8C33343
:101BC300C4540F4420C8834004F456800146F6DF12
:101BD300E4800B0102040810204080901594E47EF9
:101BE300019360BCA3FF543F30E509541FFEE49307
:101BF300A360010ECF54C025E060A840B8E493A3CE
:101C0300FAE493A3F8E493A3C8C582C8CAC583CAF8
:101C1300F0A3C8C582C8CAC583CADFE9DEE780BEB0
:01169C00004D
:10187900BC000BBE0029EF8DF084FFADF022E4CC53
:10188900F875F008EF2FFFEE33FEEC33FCEE9DEC1C
:10189900984005FCEE9DFE0FD5F0E9E4CEFD22ED62
:1018A900F8F5F0EE8420D21CFEADF075F008EF2FAC
:1018B900FFED33FD4007985006D5F0F222C398FD9D
:0518C9000FD5F0EA223A
:1018CE00C2D5EC30E709B2D5E4C39DFDE49CFCEE35
:1018DE0030E715B2D5E4C39FFFE49EFE121879C31C
:1018EE00E49DFDE49CFC800312187930D507C3E417
:0618FE009FFFE49EFE22A4
:10190400EB9FF5F0EA9E42F0E99D42F0EC6480C85A
:0619140064809845F022FA
:10191A00EB9FF5F0EA9E42F0E99D42F0E89C45F023
:01192A00229A
:10192B00D083D082F8E4937012740193700DA3A34B
:10193B0093F8740193F5828883E47374029368605F
:06194B00EFA3A3A380DF5F
:00000001FF
